:100000002DC0FECFFDCFFCCFF4C5FACFF9CFF8CF8E
:1000100007C58BC4F5CFF4CFF3CFF2CFF1CFF0CF3C
:10002000EFCFEECFEDCF10000000001405DD4351FF
:100030009931215D01118531A30B27E1A789E92BB6
:10004000E80303000200260002000C002A0014004E
:1000500060012C0002007C0140000000F894EE27B3
:10006000ECBBF1E0FBBFEBBFE5BF8DE0A2E0BB273F
:10007000ED938A95E9F780E094E0A0E6ED9301978F
:10008000E9F7E2E4F0E085919591009761F0A591A0
:10009000B59105901590BF01F00105900D92019763
:1000A000E1F7FB01F0CFEFE5EDBFE4E0EEBFC0E626
:1000B000D1E052C8BA93AA9371DCAC81BD81EAE069
:1000C000F0E019DC1E2FAC81BD81E4E6F0E013DC2A
:1000D000DF01EAE0F0E00ADC0E2FAC81BD81E8EE42
:1000E000F3E009DCDF01E4E6F0E000DC3E2FE12F85
:1000F00066D819F4709060012CC064D819F470901F
:10010000610127C063D819F47090620122C062D8DF
:1001100019F4709063011DC061D819F470906401E6
:1001200018C060D819F47090650113C05FD819F435
:10013000709066010EC05ED819F47090670109C016
:100140005DD819F47090680104C05CD811F4709007
:100150006901E02F34D811F459D82CC033D819F4E0
:100160006090610127C032D819F46090620122C00A
:1001700031D819F4609063011DC030D819F4609033
:10018000640118C02FD819F46090650113C02ED8EF
:1001900019F4609066010EC02DD819F460906701C3
:1001A00009C02CD819F46090680104C02BD811F450
:1001B00060906901E32F03D811F42BD82CC002D82A
:1001C00019F49090610127C001D819F49090620150
:1001D00022C000D819F4909063011DC0FFD719F414
:1001E0009090640118C0FED719F49090650113C077
:1001F000FDD719F4909066010EC0FCD719F49090C9
:10020000670109C0FBD719F49090680104C0FAD7C0
:1002100011F490906901E0E0F0E0C5DB26960895C6
:10022000AA93E881E064E7B98BE18A95F1F7369A01
:10023000349BFECF349AE4B1F5B12196089524970A
:10024000EBD71A9714F4689442F8E6D752971CF04B
:10025000E3D755970CF00EC0DFD7E5E1F0E0E1D72A
:10026000ABE7B4E18EE090E4B4DAA0E0B0E081E185
:1002700093E4DCD7D1D755971CF0CED757970CF025
:100280000EC0CAD7E7E1F0E0CCD7ADE3BAE087EF24
:100290009FE39FDAA0E0B0E08CE093E4C7D7BCD73F
:1002A00057971CF0B9D75A970CF00EC0B5D7EAE1B2
:1002B000F0E0B7D7ADE3BAE087ED9FE38ADAA0E0DC
:1002C000B0E087E093E4B2D7A7D75A971CF0A4D741
:1002D0005E970CF00EC0A0D7EEE1F0E0A2D7A8E444
:1002E000B1EE8AEB9FE375DAA0E0B0E082E093E440
:1002F0009DD792D75E971CF08FD792970CF00EC0C7
:100300008BD7E2E2F0E08DD7ACE5BFE882EA9FE36D
:1003100060DAA0E0B0E08AEF92E488D77DD79297C8
:100320001CF07AD796970CF00EC076D7E6E2F0E094
:1003300078D7AFE1B5E88BE89FE34BDAA0E0B0E017
:1003400080EF92E473D768D796971CF065D79B9798
:100350000CF00EC061D7EBE2F0E063D7A3E3B3E3A8
:1003600083E79FE336DAA0E0B0E086EE92E45ED762
:1003700053D79B971CF050D7D2970CF00EC04CD798
:10038000E2E3F0E04ED7A5E8BBEE81E59FE321DA9A
:10039000A0E0B0E08CED92E449D73ED7D2971CF0B4
:1003A0003BD7D9970CF00EC037D7E9E3F0E039D747
:1003B000A3E3B3E383E39FE30CDAA0E0B0E082EDD4
:1003C00092E434D729D7D99714F033D70CF00EC064
:1003D00023D7E1E4F0E025D7AAE9B9E989E19FE371
:1003E000F8D9A0E0B0E088EC92E420D722D714F04E
:1003F00025D70CF00EC010D7EBE4F0E012D7A1EE39
:10040000BAE784E19FE3E5D9A0E0B0E08EEB92E4A7
:100410000DD714D714F017D70CF00EC0FDD6E6E5B3
:10042000F0E0FFD6AEEAB7E481EE9EE3D2D9A0E0D9
:10043000B0E084EB92E4FAD606D714F009D70CF0BA
:100440000EC0EAD6E3E6F0E0ECD6ACE5BFE882EC1D
:100450009EE3BFD9A0E0B0E08AEA92E4E7D6F8D6FE
:1004600014F0FBD60CF00EC0D7D6E2E7F0E0D9D6F8
:10047000A3ECB5EF88EA9EE3ACD9A0E0B0E080EA57
:1004800092E4D4D6EAD614F0EDD60CF00EC0C4D661
:10049000E4E8F0E0C6D6A9E2BCE58FE89EE399D98E
:1004A000A0E0B0E086E992E4C1D6DCD614F0DFD655
:1004B0000CF00EC0B1D6E9E9F0E0B3D6AFE8B2EC8B
:1004C00085E79EE386D9A0E0B0E08CE892E4AED662
:1004D000CED614F0D1D60CF00EC09ED6E1EBF0E0F3
:1004E000A0D6ADE3BAE087E59EE373D9A0E0B0E023
:1004F00082E892E49BD6C0D614F0C3D60CF00AC0B2
:100500008BD6ECECF0E08DD6C1D6A0E0B0E080E771
:1005100092E48CD6B6D614F0BFD60CF00EC07CD6C2
:10052000ECEEF0E07ED6AAE0B7ED83E29EE351D98F
:10053000A0E0B0E08CE592E479D6AED614F0B1D666
:100540000CF00EC069D6EFE0F1E06BD6A9E2BCE595
:100550008FE09EE33ED9A0E0B0E088E492E466D666
:10056000A0D614F0A3D60CF00EC056D6E8E3F1E006
:1005700058D6AFE8B2EC85EF9DE32BD9A0E0B0E010
:1005800084E392E453D692D614F095D60CF00AC0C8
:1005900043D6E4E6F1E045D693D6A0E0B0E080E2B1
:1005A00092E444D688D614F091D60CF00AC034D622
:1005B000E5E9F1E036D68FD6A0E0B0E08CE092E439
:1005C00035D684D614F08DD60CF00AC025D6E9ECC9
:1005D000F1E027D680D6A0E0B0E080EF91E426D607
:1005E00080D614F083D60CF00AC016D6E5EDF1E003
:1005F00018D681D6A0E0B0E088EE91E417D676D682
:1006000014F07FD60CF00AC007D6E0EEF1E009D670
:100610007DD6A0E0B0E080EE91E408D672D614F06A
:100620007BD60CF00AC0F8D5EBEEF1E0FAD56ED629
:10063000A0E0B0E088ED91E4F9D56ED614F071D663
:100640000CF00AC0E9D5E6EFF1E0EBD55FD6A0E00B
:10065000B0E080ED91E4EAD564D614F067D60CF0F2
:100660000AC0DAD5E0E0F2E0DCD535D6A0E0B0E0B3
:1006700088EC91E4DBD55AD614F05DD60CF00AC0B4
:10068000CBD5ECE0F2E0CDD536D6A0E0B0E080EC02
:1006900091E4CCD550D614F053D60CF00AC0BCD59A
:1006A000E8E1F2E0BED527D6A0E0B0E088EB91E427
:1006B000BDD546D614F049D60CF00AC0ADD5E4E25B
:1006C000F2E0AFD523D6A0E0B0E080EB91E4AED568
:1006D0003CD614F03FD60CF00AC09ED5EEE2F2E014
:1006E000A0D514D6A0E0B0E088EA91E49FD532D638
:1006F00014F035D60CF00AC08FD5E9E3F2E091D5BD
:10070000EAD5A0E0B0E080EA91E490D528D614F0D4
:100710002BD60CF00AC080D5E5E4F2E082D5EBD50B
:10072000A0E0B0E088E991E481D51ED614F021D68E
:100730000CF00AC071D5E1E5F2E073D5DCD5A0E09C
:10074000B0E080E991E472D514D614F017D60CF01D
:100750000AC062D5EDE5F2E064D5D8D5A0E0B0E0FE
:1007600088E891E463D50AD614F00DD60CF00AC0DF
:1007700053D5E7E6F2E055D5C9D5A0E0B0E080E872
:1007800091E454D500D614F003D60CF00AC044D539
:10079000E2E7F2E046D59FD5A0E0B0E080E791E443
:1007A00045D5F6D514F0F9D50CF00AC035D5EEE7ED
:1007B000F2E037D5A0D5A0E0B0E080E691E436D5F0
:1007C000ECD514F0EFD50CF00AC026D5EAE8F2E03B
:1007D00028D591D5A0E0B0E080E591E427D5E2D519
:1007E00014F0E5D50CF00AC017D5E5E9F2E019D50B
:1007F0008DD5A0E0B0E080E491E418D5D8D514F010
:10080000DBD50CF00AC008D5EFE9F2E00AD563D5D4
:10081000A0E0B0E080E391E409D5CED514F0D1D5C5
:100820000CF007C0F9D4E9EAF2E0FBD454D5CED5F8
:10083000FDD4C7D514F0CFD50CF00AC0EDD4EEED41
:10084000F2E0EFD463D5A0E0B0E080EA90E4EED42B
:10085000C2D514F0C5D50CF00AC0DED4EFE0F3E049
:10086000E0D439D5A0E0B0E080E090E0DFD4B8D5A6
:1008700014F0BBD50CF00AC0CFD4ECE3F3E0D1D434
:100880001FD5A0E0B0E080EA90ECD0D4AED514F053
:10089000B1D50CF00EC0C0D4E3E6F3E0C2D4A8EBAF
:1008A000BEE185E09EE395D7A0E0B0E080E291EC68
:1008B000BDD4A0D514F0A3D50CF00EC0ADD4E4E89F
:1008C000F3E0AFD4AAE9B9E989E19EE382D7A0E0D9
:1008D000B0E080E791ECAAD492D514F095D50CF055
:1008E0000AC09AD4E0EAF3E09CD4D0D4A0E0B0E00F
:1008F00080EA91EC9BD488D514F08BD50CF00EC017
:100900008BD4E6EBF3E08DD4AEEAB7E481E69EE368
:1009100060D7A0E0B0E088EC91EC88D47AD514F0F0
:10092000689423F804D8249608950A92AA93BA9357
:10093000EA93FA93EFB7EA93ECE9E2BF24FE23C00F
:100940006DD584F4E82D3BD411F470D50BC03AD4A6
:1009500029F462BA9098C098C69A03C037D411F4AB
:100960006AD5C7985BD57CF0E82D29D411F45ED503
:100970000AC028D421F462BAC098C69A03C026D40B
:1009800011F459D5C7985BD50E2EA0E026FCA1E046
:10099000E1E087D70E2AA0E027FCA1E0E1E081D7C3
:1009A0000E2AA0E040FCA1E0E1E07BD7E02959F16C
:1009B000A92DE5E076D70E2EA0E037FCA1E0E0E01F
:1009C00070D70E22A0E033FCA1E0E0E06AD7E0217E
:1009D00011F0EFEF9E2E43FE03C0929AEBEF9E2E96
:1009E000E82DEDD311F422D50EC0ECD341F462BA58
:1009F000E8E1EC1509F49098C098C69A03C0E6D3D4
:100A000011F419D5C7988394E2E0E81508F4882416
:100A1000E991EFBFF991E991B991A99109901895E0
:100A20000A921A92FA926A937A938A939A93AA9361
:100A3000BA93EA93FA93EFB7EA9307D5A394B394E2
:100A4000AAE7B1E007D5E5E0EB1551F0EAE0EB15D8
:100A500039F0EFE0EB1521F0E4E1EB1509F064C0AB
:100A600024FE0BC0FDD4DAD424F4E9DBAFD4B1D634
:100A7000FED4D4D414F0E3DBFAD425FE0DC044FE3A
:100A800004C0FFD4DF0116DBEBD444FC05C0D7DB88
:100A9000E6D5DF010FDBE4D426FE06C070906C01C2
:100AA00060906B0190906A0127FE31C030FE04C057
:100AB00070906001ABD3EAD431FE04C07090610144
:100AC000A5D3E4D432FE04C0709062019FD3DED47B
:100AD00033FE04C07090630199D3D8D434FE04C0AF
:100AE0007090640193D3D2D435FE04C07090650138
:100AF0008DD3CCD436FE04C07090660187D3C6D4A3
:100B000037FE05C070906C0160906A0182D340FE90
:100B10000BC043FC02C0BDD4CDDA43FE05C0A0919A
:100B20007801B0917901C6DAEAE0EB1531F0E4E141
:100B3000EB1511F424FC01C019C0A5E071DBE093B2
:100B40007E01F0937F01E0917C01F0917D01AFE0A7
:100B5000B0E0B4D6A0917E01B0917F01AE0FBF1F6F
:100B6000FD0191D6E0937C01F0937D01E4E1EB156A
:100B700069F4B19902C0689420F8B29902C06894EF
:100B800022F8B39902C0689421F8BB24EFEFEA156C
:100B900019F4E0E14E26AA24EAE0DE1620F441FE34
:100BA00002C07CD409F00CC07ED4D29711F4A89A6C
:100BB000D39479D4A436E0E0BE0711F4A898D39476
:100BC00072D4A536E0E0BE0734F0E0E0E0937A01AD
:100BD000E0937B01A898E991EFBFF991E991B99170
:100BE000A9919991899179916991F99019900990B8
:100BF00018950A921A928A939A93AA93BA93EA93AF
:100C0000FA93EFB7EA93E8E3E4BDA0E8B1E022D4B9
:100C1000EC2DF0E0E7FDFFEF309789F449D44BD499
:100C2000689424F820FC4AD421FE06C04BD4E0E0AE
:100C3000CE1614F4E2E0CE2E22FC48D443C2C2D237
:100C400059F4689425F837D444D420FC37D421FCD7
:100C500039D422FC3BD436C2B9D2A1F429D4689449
:100C600026F837D421FC2ED420FE05C027D4E2E09C
:100C7000EC150CF4CC2422FE04C0E4E0CE2E2CD4DF
:100C800025D420C2ABD2D1F413D415D422D4E89405
:100C900037F8689430F823D41FD421FC23D420FEE5
:100CA00007C0CA94E4E0CE1614F4EBE0CE2E1ED4B6
:100CB00022FE03C00BD4E4E1CE2E04C293D2A1F4F1
:100CC000F7D3F9D306D4E89430F8689431F8E8946F
:100CD00032F802D420FC0DD421FC04D422FE03C03F
:100CE000F5D3E5E1CE2EEEC181D299F4E1D3E3D381
:100CF000F0D3F5D3689432F8E89433F8EDD320FCC0
:100D0000F8D321FCEFD322FE03C0E0D3E6E1CE2EE0
:100D1000D9C170D2A1F4CCD3CED3DBD3E89432F8CE
:100D2000689433F8E89434F8D7D320FCE2D321FC5C
:100D3000D9D322FE03C0CAD3E7E1CE2EC3C15ED20F
:100D4000A1F4B6D3B8D3C5D3E89433F8689434F893
:100D5000E89435F8C1D320FCCCD321FCC3D322FEC8
:100D600003C0B4D3E8E1CE2EADC14CD2A1F4A0D3E0
:100D7000A2D3AFD3E89434F8689435F8E89436F801
:100D8000ABD320FCB6D321FCADD322FE03C09ED34F
:100D9000E9E1CE2E97C1EA30A0E0FA07A1F488D3AA
:100DA0008AD397D3E89435F8689436F8E89437F8FE
:100DB00093D320FC9ED321FC95D322FE03C086D37F
:100DC000EAE1CE2E7FC1EB30A0E0FA0709F570D33F
:100DD00072D37FD381D3E89436F8689437F8E894D7
:100DE00030F820FC86D321FE07C0C394EBE0EC155D
:100DF00014F4E4E0CE2E7FD322FE09C059D35BD396
:100E0000689424F87BD3CC24E89437F85FD35AC194
:100E1000E431A0E0FA0739F571D373D375D395D5D2
:100E2000E13039F470906C0160906F019090710125
:100E300006C07090700160906F0190906E0120FE6E
:100E400004C054D361D3E0E094D521FE04C053D351
:100E50005BD3E1E08ED522FE05C038D3E4E057D362
:100E600030F858D32FC1E531A0E0FA0701F546D399
:100E700048D341FC02C051D353D320FE05C036D322
:100E800057D35BD30AF462D321FE04C034D365D3B5
:100E90000CF06ED322FE0AC019D3E5E0CE2E1FD38C
:100EA00039D3E89441F844D338D35BD50BC1E6314C
:100EB000A0E0FA07F9F422D324D341FC02C05ED3A8
:100EC0002FD320FE05C012D333D337D30AF43ED339
:100ED00021FE04C010D341D30CF04AD322FE09C036
:100EE000F5D2E6E014D332F815D34BD321D346D351
:100EF00038D5E8C0E731A0E0FA0749F5FFD201D3C1
:100F0000CDD229F4EFEF7E2E6090720182D1A6E05F
:100F1000B0E01BD5E03029F470907301609073014C
:100F200078D120FE05C0E2D2A6E0B0E0E1E021D514
:100F300021FE05C0E0D2A6E0B0E0E0E01AD522FE36
:100F400005C0C4D2E7E0E3D233F8E4D2BBC0E83155
:100F5000A0E0FA0709F051C0D1D2D3D241FC09C0B8
:100F6000A0E0B0E0F2D4F0E0E7FDFFEF0DD311D345
:100F700013D320FE15C0BAD2A4E7B1E0ED91FD91E4
:100F80003197FE93EE9308D30DD352F40FD381D251
:100F9000A63AEFEFBE0724F4EAE5F0E0F5D2FCD282
:100FA00021FE18C0A8D2A4E7B1E054D2F5D2FAD2FB
:100FB0000AF4FCD26ED2AB35E0E0BE075CF0E6EAA4
:100FC000FFEFE2D2B5D253D4E0937801F0937901E8
:100FD000689443F85ED2DED414F4E89443F822FE19
:100FE0000BC074D2E8E093D234F894D2CAD2E09124
:100FF0007401A0E0B0E0BDD465C0E931A0E0FA071B
:1010000061F57CD27ED241FC04C0D9D2DBD2BCD205
:10101000C0D220FE09C06AD28BD23297B5D2C2D2DA
:101020001AF4EAE0F0E0B0D221FE08C064D280D227
:101030003296AAD22ED21B970CF09AD222FE0CC066
:1010400045D2E9E064D235F865D29BD222D2E2E003
:10105000F0E04CD4B4D28DD435C0EA31A0E0FA0728
:1010600089F54CD24ED241FC03C00BD28DD291D225
:1010700020FE0DC03BD25CD2359786D24ED261D4D1
:1010800008D2AE17BF071CF479D25BD47DD221FE03
:101090000DC031D24DD2359677D270D252D4F9D11B
:1010A000EA17FB071CF439D24CD46ED222FE0AC0D8
:1010B0000DD2EAE0CE2E13D22DD263D2E09174018C
:1010C00084D257D425FC03C0A998AA98C5981CD2ED
:1010D0003CD4A0E0E6D30E2EB2D1E021A9F078D224
:1010E00079D27DD2AE17BF0724F4C598AA9849D209
:1010F000A8986ED27CD2EA17FB0734F4C59AAA9A54
:1011000041FC02C0DD2445D2FFD11FD4A1E0C9D3E8
:101110000E2E95D1E021A9F05BD269D2AE17BF07A0
:1011200034F4C59AA99A41FC02C0DD2432D250D2CF
:1011300051D255D2EA17FB0724F4C598A99821D2B9
:10114000A898E991EFBFF991E991B991A991999185
:101150008991199009901895E1EEE7BBEEE0E8BBA4
:10116000E7E0E4BBE0E0E5BBEFEFE1BBE0E0E2BBE2
:10117000E4E0E3BFECE9E2BFE0E0EFBDE2E0EEBDBA
:1011800064D1E0E0E7BDE6BDEBBDEABDE9BDE8BD89
:10119000E2BDE2E0E5BDE8E3E4BDE0E0E3BDE5E4B7
:1011A000E9BFE0E0E5BFEAB9E0E8E8B9E0E4E7B9C3
:1011B000E6E8E6B9E0E0E0BF7894FFCFFFCFF0E0EB
:1011C00030970895E130A0E0FA070895E230A0E0FA
:1011D000FA070895E330A0E0FA070895E430A0E0AC
:1011E000FA070895E530A0E0FA070895E630A0E098
:1011F000FA070895E730A0E0FA070895E830A0E084
:10120000FA070895E930A0E0FA07089560906001B8
:101210000895909060010895A0917C01B0917D01A6
:101220000895EA1BFB0B38D351D2089582D284D3A0
:101230000895F2DFA134E0E0BE070895EDDFAB349E
:10124000E0E0BE070895E8DFA635E0E0BE070895B8
:10125000E3DFA336E0E0BE070895DEDFA237E0E07B
:10126000BE070895D9DFA438E0E0BE070895D4DFB3
:10127000A939E0E0BE070895CFDFA13BE0E0BE075B
:101280000895CADFAC3CE0E0BE070895ACEEB1E5DE
:1012900088E39EE39ED20895BFDFAC3EE0E0BE0748
:1012A0000895BADFAF30E1E0BE070895B5DFA83397
:1012B000E1E0BE070895B0DFA436E1E0BE0708957F
:1012C000AEEAB7E481EE9DE384D20895A5DFA539A7
:1012D000E1E0BE070895ADECBCEC8CEC9DE379D267
:1012E00008959ADFA93CE1E0BE07089595DFA53D8A
:1012F000E1E0BE070895AAE0B7ED83EA9DE369D275
:1013000008958ADFA03EE1E0BE070895ACEEB1E5A6
:1013100088EB9DE35ED208957FDFAB3EE1E0BE0740
:1013200008957ADFA63FE1E0BE07089575DFA0309B
:10133000E2E0BE07089570DFAC30E2E0BE0708953A
:101340006BDFA831E2E0BE07089566DFA432E2E079
:10135000BE07089561DFAE32E2E0BE0708955CDFAC
:10136000A933E2E0BE07089557DFA534E2E0BE07E7
:10137000089552DFA135E2E0BE0708954DDFAD3597
:10138000E2E0BE07089548DFA736E2E0BE07089511
:1013900043DFA437E2E0BE0708953EDFAE37E2E068
:1013A000BE07089539DFAA38E2E0BE07089534DFAA
:1013B000A539E2E0BE0708952FDFAF39E2E0BE07AE
:1013C00008952ADFA93AE2E0BE070895A0E0B0E060
:1013D00080E291E4089520DFAE3DE2E0BE0708958B
:1013E0001BDFAF30E3E0BE07089516DFAC33E3E068
:1013F000BE07089511DFA336E3E0BE0708950CDFB2
:10140000A438E3E0BE07089507DFA03AE3E0BE0793
:10141000089502DFA63BE3E0BE070895A0917601A0
:10142000B0917701A436E0E0BE07089572BAC09883
:10143000C698C79A089592BAC09AC6980895A0E02F
:1014400025FCA1E0E1E02DD20895E8EDEDBDE0EF4F
:10145000ECBD0895ED91FD913196FE93EE930895C4
:10146000EED6A6E7B1E0FBD0ED93FC930895A2E899
:10147000B1E0F5D0ED93FC93A0918201B09183018E
:1014800019C6A8E0B0E061D2F0E0089590906D0137
:101490000895A0917401B09175010895A6E0B0E09F
:1014A00054D2E1300895A0917A01B0917B01089562
:1014B000E89425F80895E89426F80895C394E894EC
:1014C00020F80895CA94E89421F80895E89422F841
:1014D0000895E89424F80895689427F80895E89406
:1014E00031F80895C394E89421F80895E89420F819
:1014F0000895CA94FBCFE89421F80895E89427F85A
:101500000895689440F80895A5E0B0E00895CE2EBF
:10151000E8940895E89440F80895A1E0B0E00895B3
:1015200010D2E0937401F0937501689441F8089526
:10153000E0917401F091750108953597E09374017D
:10154000F0937501A0917501AA230895E6E9F0E0F2
:10155000E0937401F09375010895EADF3596E09306
:101560007401F093750195DFA739E0E0BE07089597
:10157000E0E0E0937401E09375010895A3E0B0E02A
:101580000895E89441F80895E0937401F09375018B
:101590000895689441F80895CBDFE0937801F093C3
:1015A00079010895A0917501AA230895689443F8DC
:1015B000BFDF5DD1E0937801F09379010895A7E052
:1015C000B0E00895C2D1F0E00895A8E0B0E0089539
:1015D000F6DFF8CFA0917601B09177010895AE1BA8
:1015E000BF0B0D01F2DFB1D1D001F0E00895F2DFC1
:1015F000EA0FFB1F0F01E9DFA8D1D001F0E0089549
:10160000552342F4503811F4E0FF04C03196691FAD
:10161000791F6BF050E8572711F45F93C8C05F3F04
:1016200031F0660F000C57956795752F08955F93FD
:1016300000200AF0C8C0C1C050E8192E1522880F3A
:10164000991F9527550F879550E8072E0522660F9D
:10165000771F7527550F67950895689401C0E89422
:101660005F93F2DF703818F07F3F08F4A0C056E1B6
:10167000571BAAF4519558300EF4593030F0EFEF63
:10168000FFEF6FEF7FE777F91AC077275523B9F09F
:10169000EE0FFF1F661F771F5A95D1F710C07727EF
:1016A000583028F0EF2FF62F672F5850F9CF5523D9
:1016B00031F076956795F795E7955A95D1F7002023
:1016C0000AF4D9D05F910895689401C0E8943097E6
:1016D00060407040B1F0002426F0772312F40094AB
:1016E000CAD0172E7EE1112032F07A95EE0FFF1F3F
:1016F000661F111CF9CFEF2FF62F612D5F938ADF44
:101700005F9108954F93AF01FD01DA01AB01BC0178
:10171000CA01402D012C142E4F910895EA0FFB1F92
:10172000681F0895E095F0956095EF5FFF4F6F4F4C
:1017300008955F9381DF903839F1703821F1572F88
:10174000591B2BF112F4DEDFFACF583118F0AA271B
:10175000BB278827583028F0AB2FB82F8827585040
:10176000F9CF552329F08695B795A7955A95D9F7BE
:10177000502D512572F0D2DF38F46795F795E79533
:10178000739513F420C0BEDF45DF5F910895D8F74D
:10179000FBCFEA1BFB0B680B51F010F40094C2DF87
:1017A000662392F3EE0FFF1F661F7A95CBF7EE27A5
:1017B000FF27662777275F910895EFEFFFEF6FE729
:1017C0007FEF5F910895EFEFFFEF6FE77FE75F91A6
:1017D00008955F9331DF703851F3903841F301245D
:1017E0000894791F23F41CF300203AF3ECCF0F92F6
:1017F0001F932F933F934F93112722279927689F79
:10180000A0018F9F302D410D591F6B9F300D411D41
:10181000591F8E9F27D0BF9F25D06A9F23D0BE9F80
:101820001DD0AF9F1BD0AE9F110D291F391F491F1F
:10183000591FE32FF42F652F522F4F913F912F9176
:101840001F910F9066232AF0550FEE1FFF1F661F92
:1018500002C073954BF2D4DE5F910895100D211DE7
:10186000391F02C0200D311D491F591F0895F195E0
:10187000E195F0400895F09560957095E195FF4FE2
:101880006F4F7F4F0895F595E795F595E795F59599
:10189000E795F595E79508956F2F660F660B762F00
:1018A0000895EA17E1E009F0EE270895FA9FF02D78
:1018B000EB9FF00DEA9FE02DF10D08952AD0F6DFA1
:1018C0000EF4D5DF08950024112490E1AA0FBB1F68
:1018D000001C111C0E1A1F0A18F40E0E1F1E01C048
:1018E000A1609A9599F7FD01D001089512D0EBDF20
:1018F0000EF4BDDF0895E894B7FF04C0A095B0953D
:1019000011966894F7FDB3DFDEDFFD010EF4AFDF63
:101910000895E894F7FF02C0AADF6894B7FF06C0F5
:10192000A095B095119600F8039400FA0895E88107
:10193000F9816A817B810895E883F9836A837B83D7
:101940000895119602D0FE2F1197E199FECFFF93D3
:10195000FFB7F894AEBBBFBBE09AEDB3FFBFFF91FA
:10196000089507D01196EF93EF2F03D0EF911197C1
:101970000895E19B02C0A895FCCF9FB7F894AEBB39
:10198000BFBBE09A8DB3E81719F0EDBBE29AE19A7C
:101990009FBF089500240A160B0608953A932A93D0
:1019A0001A930A9308953B812A8119810881089529
:00000001FF
